{
  "contractName": "ScoreStore",
  "abi": [
    {
      "inputs": [
        {
          "internalType": "string",
          "name": "name",
          "type": "string"
        },
        {
          "internalType": "int256",
          "name": "score",
          "type": "int256"
        }
      ],
      "name": "AddPersonScore",
      "outputs": [],
      "stateMutability": "nonpayable",
      "type": "function"
    },
    {
      "inputs": [
        {
          "internalType": "string",
          "name": "name",
          "type": "string"
        }
      ],
      "name": "GetScore",
      "outputs": [
        {
          "internalType": "int256",
          "name": "",
          "type": "int256"
        }
      ],
      "stateMutability": "nonpayable",
      "type": "function"
    }
  ],
  "bytecode": "0x608060405234801561001057600080fd5b506103fb806100206000396000f3fe608060405234801561001057600080fd5b50600436106100365760003560e01c8063308d19641461003b578063fdb402b81461006b575b600080fd5b6100556004803603810190610050919061022f565b610087565b6040516100629190610291565b60405180910390f35b610085600480360381019061008091906102d8565b6100ae565b005b6000808260405161009891906103ae565b9081526020016040518091039020549050919050565b806000836040516100bf91906103ae565b9081526020016040518091039020819055505050565b6000604051905090565b600080fd5b600080fd5b600080fd5b600080fd5b6000601f19601f8301169050919050565b7f4e487b7100000000000000000000000000000000000000000000000000000000600052604160045260246000fd5b61013c826100f3565b810181811067ffffffffffffffff8211171561015b5761015a610104565b5b80604052505050565b600061016e6100d5565b905061017a8282610133565b919050565b600067ffffffffffffffff82111561019a57610199610104565b5b6101a3826100f3565b9050602081019050919050565b82818337600083830152505050565b60006101d26101cd8461017f565b610164565b9050828152602081018484840111156101ee576101ed6100ee565b5b6101f98482856101b0565b509392505050565b600082601f830112610216576102156100e9565b5b81356102268482602086016101bf565b91505092915050565b600060208284031215610245576102446100df565b5b600082013567ffffffffffffffff811115610263576102626100e4565b5b61026f84828501610201565b91505092915050565b6000819050919050565b61028b81610278565b82525050565b60006020820190506102a66000830184610282565b92915050565b6102b581610278565b81146102c057600080fd5b50565b6000813590506102d2816102ac565b92915050565b600080604083850312156102ef576102ee6100df565b5b600083013567ffffffffffffffff81111561030d5761030c6100e4565b5b61031985828601610201565b925050602061032a858286016102c3565b9150509250929050565b600081519050919050565b600081905092915050565b60005b8381101561036857808201518184015260208101905061034d565b83811115610377576000848401525b50505050565b600061038882610334565b610392818561033f565b93506103a281856020860161034a565b80840191505092915050565b60006103ba828461037d565b91508190509291505056fea26469706673582212205a51cdc346ae48c4c47a8f8019dafcf8b7944c8bd534abd538d4464e2c719f4f64736f6c634300080d0033",
  "immutableReferences": {},
  "source": "// SPDX-License-Identifier: MIT\r\npragma solidity >=0.4.22 <0.9.0;\r\n\r\ncontract ScoreStore\r\n{\r\nmapping (string=> int) PersonScores;\r\n\r\nfunction AddPersonScore(string memory name, int score) public\r\n{\r\n\t\tPersonScores[name] = score;\r\n}\r\n\r\nfunction GetScore(string memory name) public returns (int) \r\n{\r\n\treturn PersonScores[name];\r\n}\r\n\r\n}\r\n",
  "sourcePath": "D:\\ScoreStore\\contracts\\ScoreStore.sol",
  "compiler": {
    "name": "solc",
    "version": "0.8.13+commit.abaa5c0e.Emscripten.clang"
  },
  "schemaVersion": "3.4.6",
  "updatedAt": "2022-03-29T10:31:21.990Z",
  "networkType": "ethereum",
  "devdoc": {
    "kind": "dev",
    "methods": {},
    "version": 1
  },
  "userdoc": {
    "kind": "user",
    "methods": {},
    "version": 1
  }
}